{
  "contractName": "Club",
  "abi": [
    {
      "constant": true,
      "inputs": [
        {
          "name": "",
          "type": "address"
        }
      ],
      "name": "clubExist",
      "outputs": [
        {
          "name": "",
          "type": "bool"
        }
      ],
      "payable": false,
      "stateMutability": "view",
      "type": "function"
    },
    {
      "constant": true,
      "inputs": [
        {
          "name": "",
          "type": "uint256"
        }
      ],
      "name": "clubs",
      "outputs": [
        {
          "name": "",
          "type": "address"
        }
      ],
      "payable": false,
      "stateMutability": "view",
      "type": "function"
    },
    {
      "inputs": [],
      "payable": false,
      "stateMutability": "nonpayable",
      "type": "constructor"
    },
    {
      "anonymous": false,
      "inputs": [
        {
          "indexed": true,
          "name": "_club",
          "type": "address"
        }
      ],
      "name": "ClubAdded",
      "type": "event"
    },
    {
      "constant": false,
      "inputs": [],
      "name": "toggleContractActive",
      "outputs": [],
      "payable": false,
      "stateMutability": "nonpayable",
      "type": "function"
    },
    {
      "constant": true,
      "inputs": [],
      "name": "getOwner",
      "outputs": [
        {
          "name": "",
          "type": "address"
        }
      ],
      "payable": false,
      "stateMutability": "view",
      "type": "function"
    },
    {
      "constant": false,
      "inputs": [
        {
          "name": "_name",
          "type": "string"
        }
      ],
      "name": "registerClub",
      "outputs": [],
      "payable": false,
      "stateMutability": "nonpayable",
      "type": "function"
    },
    {
      "constant": true,
      "inputs": [
        {
          "name": "_address",
          "type": "address"
        }
      ],
      "name": "getClubName",
      "outputs": [
        {
          "name": "",
          "type": "string"
        }
      ],
      "payable": false,
      "stateMutability": "view",
      "type": "function"
    },
    {
      "constant": true,
      "inputs": [],
      "name": "clubCount",
      "outputs": [
        {
          "name": "count",
          "type": "uint256"
        }
      ],
      "payable": false,
      "stateMutability": "view",
      "type": "function"
    }
  ],
  "bytecode": "0x60806040526000600160006101000a81548160ff02191690831515021790555034801561002b57600080fd5b50336001806101000a81548173ffffffffffffffffffffffffffffffffffffffff021916908373ffffffffffffffffffffffffffffffffffffffff160217905550610a4b8061007b6000396000f300608060405260043610610083576000357c0100000000000000000000000000000000000000000000000000000000900463ffffffff168063045f616c146100885780631385d24c1461014457806332f23c931461015b57806334c275dd14610186578063893d20e8146101e15780639cc009c114610238578063cead323d146102a5575b600080fd5b34801561009457600080fd5b506100c9600480360381019080803573ffffffffffffffffffffffffffffffffffffffff16906020019092919050505061030e565b6040518080602001828103825283818151815260200191508051906020019080838360005b838110156101095780820151818401526020810190506100ee565b50505050905090810190601f1680156101365780820380516001836020036101000a031916815260200191505b509250505060405180910390f35b34801561015057600080fd5b506101596103ef565b005b34801561016757600080fd5b506101706104df565b6040518082815260200191505060405180910390f35b34801561019257600080fd5b506101c7600480360381019080803573ffffffffffffffffffffffffffffffffffffffff1690602001909291905050506104eb565b604051808215151515815260200191505060405180910390f35b3480156101ed57600080fd5b506101f661050b565b604051808273ffffffffffffffffffffffffffffffffffffffff1673ffffffffffffffffffffffffffffffffffffffff16815260200191505060405180910390f35b34801561024457600080fd5b5061026360048036038101908080359060200190929190505050610534565b604051808273ffffffffffffffffffffffffffffffffffffffff1673ffffffffffffffffffffffffffffffffffffffff16815260200191505060405180910390f35b3480156102b157600080fd5b5061030c600480360381019080803590602001908201803590602001908080601f0160208091040260200160405190810160405280939291908181526020018383808284378201915050505050509192919290505050610572565b005b6060600260008373ffffffffffffffffffffffffffffffffffffffff1673ffffffffffffffffffffffffffffffffffffffff1681526020019081526020016000208054600181600116156101000203166002900480601f0160208091040260200160405190810160405280929190818152602001828054600181600116156101000203166002900480156103e35780601f106103b8576101008083540402835291602001916103e3565b820191906000526020600020905b8154815290600101906020018083116103c657829003601f168201915b50505050509050919050565b6001809054906101000a900473ffffffffffffffffffffffffffffffffffffffff1673ffffffffffffffffffffffffffffffffffffffff163373ffffffffffffffffffffffffffffffffffffffff161415156104b3576040517f08c379a00000000000000000000000000000000000000000000000000000000081526004018080602001828103825260208152602001807f4f6e6c79206f776e65722063616e2063616c6c20746869732066756e74696f6e81525060200191505060405180910390fd5b600160009054906101000a900460ff1615600160006101000a81548160ff021916908315150217905550565b60008080549050905090565b60036020528060005260406000206000915054906101000a900460ff1681565b60006001809054906101000a900473ffffffffffffffffffffffffffffffffffffffff16905090565b60008181548110151561054357fe5b906000526020600020016000915054906101000a900473ffffffffffffffffffffffffffffffffffffffff1681565b80600015156004826040518082805190602001908083835b6020831015156105af578051825260208201915060208101905060208303925061058a565b6001836020036101000a038019825116818451168082178552505050505050905001915050908152602001604051809103902060009054906101000a900460ff1615151415156106b3576040517f08c379a00000000000000000000000000000000000000000000000000000000081526004018080602001828103825260448152602001807f5468697320636c756220616c7265616479206578697374732e2054727920726581526020017f676973746572696e672077697468206120646966666572656e7420636c75622081526020017f6e616d650000000000000000000000000000000000000000000000000000000081525060600191505060405180910390fd5b60001515600160009054906101000a900460ff16151514151561073e576040517f08c379a000000000000000000000000000000000000000000000000000000000815260040180806020018281038252601f8152602001807f54686520446170702069732070617573656420627920746865206f776e65720081525060200191505060405180910390fd5b60001515600360003373ffffffffffffffffffffffffffffffffffffffff1673ffffffffffffffffffffffffffffffffffffffff16815260200190815260200160002060009054906101000a900460ff16151514151561079d57600080fd5b60003390806001815401808255809150509060018203906000526020600020016000909192909190916101000a81548173ffffffffffffffffffffffffffffffffffffffff021916908373ffffffffffffffffffffffffffffffffffffffff160217905550506001600360003373ffffffffffffffffffffffffffffffffffffffff1673ffffffffffffffffffffffffffffffffffffffff16815260200190815260200160002060006101000a81548160ff02191690831515021790555081600260003373ffffffffffffffffffffffffffffffffffffffff1673ffffffffffffffffffffffffffffffffffffffff16815260200190815260200160002090805190602001906108ae92919061097a565b5060016004836040518082805190602001908083835b6020831015156108e957805182526020820191506020810190506020830392506108c4565b6001836020036101000a038019825116818451168082178552505050505050905001915050908152602001604051809103902060006101000a81548160ff0219169083151502179055503373ffffffffffffffffffffffffffffffffffffffff167fcab2a8cf2bfcdcdee4d5f1c64e27d2f26b01d06f3bd1fb0267f8d292946d4faa60405160405180910390a25050565b828054600181600116156101000203166002900490600052602060002090601f016020900481019282601f106109bb57805160ff19168380011785556109e9565b828001600101855582156109e9579182015b828111156109e85782518255916020019190600101906109cd565b5b5090506109f691906109fa565b5090565b610a1c91905b80821115610a18576000816000905550600101610a00565b5090565b905600a165627a7a723058207f2bb5133e8bcc683616bb028ef9a1b75fce09fc9f01d384a0b82b8df23da0650029",
  "source": "pragma solidity ^0.4.24;\n\n///@author Sanjay Sanathanan\n///@title Contract that stores the address of clubs\ncontract Club{\n\n    /// stores address of registered clubs\n    address[] public clubs;\n\n    bool private stopped = false;\n    address owner;\n\n    ///Modifier to check if its an admin\n    modifier isAdmin() {\n        require(msg.sender == owner,\"Only owner can call this funtion\");\n        _;\n    }\n\n    ///@dev Circuit Breaker implementation\n    ///Toggles the contract bewtween on and off states\n    function toggleContractActive() isAdmin public {\n        stopped = !stopped;\n    }\n    \n    mapping (address => string) clubName;\n    \n    mapping(address => bool) public clubExist;\n    \n    mapping(string => bool) nameExists;\n    \n    // If the contract is paused, stop the modified function\n    // Attach this modifier to all public functions\n    modifier checkIfPaused() {\n        require(stopped == false,\"The Dapp is paused by the owner\");\n        _;\n    }\n    modifier validClub(){\n        require(clubExist[msg.sender],\"You are not registered as a valid Club\");\n        _;\n    }\n\n    modifier nameExist(string name){\n        require(nameExists[name] == false,\"This club already exists. Try registering with a different club name\");\n        _;\n    }\n\n    event ClubAdded(address indexed _club);\n\n    constructor() public{\n        owner = msg.sender;\n    }\n    \n    ///Return the owner of the contract.\n    ///@return address of the owner\n    function getOwner() public view \n    returns (address){\n        return owner;\n    }\n    \n    ///Register a club and push the address to the clubs storage\n    ///@notice Registers a club with a given address and name.\n    ///@param _name the name of the club\n    ///@dev no two clubs with the same name and address can register\n    function registerClub(string _name) public nameExist(_name) checkIfPaused {\n        require(clubExist[msg.sender] == false);\n        \n        clubs.push(msg.sender);\n        clubExist[msg.sender] = true;\n        clubName[msg.sender] = _name;\n        nameExists[_name] = true;\n\n        emit ClubAdded(msg.sender);\n    }\n    \n    ///Return the name of the club\n    ///@param _address of the club\n    ///@return name of the club for the particular address param\n    function getClubName(address _address) public view\n    returns (string){\n        return clubName[_address];\n    }\n\n    ///Retunr the total number of clubs\n    ///@return length of strorage variable clubs\n    function clubCount() public view returns(uint count) {\n        return clubs.length;\n    }\n}",
  "sourcePath": "D:\\Dapps\\ConsenSys\\Final Project\\contracts\\Club.sol",
  "compiler": {
    "name": "solc",
    "version": "0.4.24+commit.e67f0147.Emscripten.clang"
  },
  "schemaVersion": "2.0.1",
  "updatedAt": "2019-01-26T14:38:35.514Z"
}