{
  "contractName": "Players",
  "abi": [
    {
      "constant": true,
      "inputs": [
        {
          "name": "_address",
          "type": "address"
        }
      ],
      "name": "getClubName",
      "outputs": [
        {
          "name": "",
          "type": "string"
        }
      ],
      "payable": false,
      "stateMutability": "view",
      "type": "function"
    },
    {
      "constant": false,
      "inputs": [],
      "name": "toggleContractActive",
      "outputs": [],
      "payable": false,
      "stateMutability": "nonpayable",
      "type": "function"
    },
    {
      "constant": true,
      "inputs": [],
      "name": "clubCount",
      "outputs": [
        {
          "name": "count",
          "type": "uint256"
        }
      ],
      "payable": false,
      "stateMutability": "view",
      "type": "function"
    },
    {
      "constant": true,
      "inputs": [
        {
          "name": "",
          "type": "address"
        }
      ],
      "name": "clubExist",
      "outputs": [
        {
          "name": "",
          "type": "bool"
        }
      ],
      "payable": false,
      "stateMutability": "view",
      "type": "function"
    },
    {
      "constant": true,
      "inputs": [],
      "name": "playerID",
      "outputs": [
        {
          "name": "",
          "type": "uint256"
        }
      ],
      "payable": false,
      "stateMutability": "view",
      "type": "function"
    },
    {
      "constant": true,
      "inputs": [],
      "name": "getOwner",
      "outputs": [
        {
          "name": "",
          "type": "address"
        }
      ],
      "payable": false,
      "stateMutability": "view",
      "type": "function"
    },
    {
      "constant": true,
      "inputs": [
        {
          "name": "",
          "type": "uint256"
        }
      ],
      "name": "clubs",
      "outputs": [
        {
          "name": "",
          "type": "address"
        }
      ],
      "payable": false,
      "stateMutability": "view",
      "type": "function"
    },
    {
      "constant": true,
      "inputs": [
        {
          "name": "",
          "type": "uint256"
        }
      ],
      "name": "player",
      "outputs": [
        {
          "name": "playerID",
          "type": "uint256"
        },
        {
          "name": "name",
          "type": "string"
        },
        {
          "name": "value",
          "type": "uint256"
        },
        {
          "name": "wage",
          "type": "uint256"
        },
        {
          "name": "year",
          "type": "uint256"
        },
        {
          "name": "club",
          "type": "address"
        },
        {
          "name": "state",
          "type": "uint8"
        }
      ],
      "payable": false,
      "stateMutability": "view",
      "type": "function"
    },
    {
      "constant": false,
      "inputs": [
        {
          "name": "_name",
          "type": "string"
        }
      ],
      "name": "registerClub",
      "outputs": [],
      "payable": false,
      "stateMutability": "nonpayable",
      "type": "function"
    },
    {
      "anonymous": false,
      "inputs": [
        {
          "indexed": true,
          "name": "_pid",
          "type": "uint256"
        }
      ],
      "name": "PlayerAdded",
      "type": "event"
    },
    {
      "anonymous": false,
      "inputs": [
        {
          "indexed": true,
          "name": "_club",
          "type": "address"
        }
      ],
      "name": "ClubAdded",
      "type": "event"
    },
    {
      "constant": true,
      "inputs": [
        {
          "name": "_id",
          "type": "uint256"
        }
      ],
      "name": "getPlayerName",
      "outputs": [
        {
          "name": "",
          "type": "string"
        }
      ],
      "payable": false,
      "stateMutability": "view",
      "type": "function"
    },
    {
      "constant": true,
      "inputs": [
        {
          "name": "_id",
          "type": "uint256"
        }
      ],
      "name": "getPlayerValue",
      "outputs": [
        {
          "name": "",
          "type": "uint256"
        }
      ],
      "payable": false,
      "stateMutability": "view",
      "type": "function"
    },
    {
      "constant": true,
      "inputs": [
        {
          "name": "_id",
          "type": "uint256"
        }
      ],
      "name": "getPlayerWeeklyWage",
      "outputs": [
        {
          "name": "",
          "type": "uint256"
        }
      ],
      "payable": false,
      "stateMutability": "view",
      "type": "function"
    },
    {
      "constant": true,
      "inputs": [
        {
          "name": "_id",
          "type": "uint256"
        }
      ],
      "name": "getPlayerContractYear",
      "outputs": [
        {
          "name": "",
          "type": "uint256"
        }
      ],
      "payable": false,
      "stateMutability": "view",
      "type": "function"
    },
    {
      "constant": true,
      "inputs": [
        {
          "name": "_id",
          "type": "uint256"
        }
      ],
      "name": "getPlayerClub",
      "outputs": [
        {
          "name": "",
          "type": "string"
        }
      ],
      "payable": false,
      "stateMutability": "view",
      "type": "function"
    },
    {
      "constant": true,
      "inputs": [
        {
          "name": "_id",
          "type": "uint256"
        }
      ],
      "name": "getPlayerClubaddress",
      "outputs": [
        {
          "name": "",
          "type": "address"
        }
      ],
      "payable": false,
      "stateMutability": "view",
      "type": "function"
    },
    {
      "constant": true,
      "inputs": [
        {
          "name": "_pid",
          "type": "uint256"
        }
      ],
      "name": "fetchPlayer",
      "outputs": [
        {
          "name": "name",
          "type": "string"
        },
        {
          "name": "club",
          "type": "address"
        },
        {
          "name": "clubname",
          "type": "string"
        },
        {
          "name": "value",
          "type": "uint256"
        },
        {
          "name": "wage",
          "type": "uint256"
        },
        {
          "name": "length",
          "type": "uint256"
        },
        {
          "name": "state",
          "type": "uint256"
        }
      ],
      "payable": false,
      "stateMutability": "view",
      "type": "function"
    }
  ],
  "bytecode": "0x60806040526000600160006101000a81548160ff021916908315150217905550336001806101000a81548173ffffffffffffffffffffffffffffffffffffffff021916908373ffffffffffffffffffffffffffffffffffffffff1602179055506115de8061006e6000396000f3006080604052600436106100e6576000357c0100000000000000000000000000000000000000000000000000000000900463ffffffff168063045f616c146100eb5780630bad67a9146101a75780631385d24c1461024d5780631be4818e1461026457806332f23c93146103c557806334c275dd146103f05780633adab4ee1461044b57806349c61297146104765780637fe54e42146104b757806382e37b2c14610524578063893d20e8146105ca5780639cc009c1146106215780639e0551c61461068e578063bc3c62eb14610798578063cead323d146107d9578063ea53bc7914610842575b600080fd5b3480156100f757600080fd5b5061012c600480360381019080803573ffffffffffffffffffffffffffffffffffffffff169060200190929190505050610883565b6040518080602001828103825283818151815260200191508051906020019080838360005b8381101561016c578082015181840152602081019050610151565b50505050905090810190601f1680156101995780820380516001836020036101000a031916815260200191505b509250505060405180910390f35b3480156101b357600080fd5b506101d260048036038101908080359060200190929190505050610964565b6040518080602001828103825283818151815260200191508051906020019080838360005b838110156102125780820151818401526020810190506101f7565b50505050905090810190601f16801561023f5780820380516001836020036101000a031916815260200191505b509250505060405180910390f35b34801561025957600080fd5b50610262610a7b565b005b34801561027057600080fd5b5061028f60048036038101908080359060200190929190505050610b6b565b60405180806020018873ffffffffffffffffffffffffffffffffffffffff1673ffffffffffffffffffffffffffffffffffffffff1681526020018060200187815260200186815260200185815260200184815260200183810383528a818151815260200191508051906020019080838360005b8381101561031d578082015181840152602081019050610302565b50505050905090810190601f16801561034a5780820380516001836020036101000a031916815260200191505b50838103825288818151815260200191508051906020019080838360005b83811015610383578082015181840152602081019050610368565b50505050905090810190601f1680156103b05780820380516001836020036101000a031916815260200191505b50995050505050505050505060405180910390f35b3480156103d157600080fd5b506103da610e0d565b6040518082815260200191505060405180910390f35b3480156103fc57600080fd5b50610431600480360381019080803573ffffffffffffffffffffffffffffffffffffffff169060200190929190505050610e19565b604051808215151515815260200191505060405180910390f35b34801561045757600080fd5b50610460610e39565b6040518082815260200191505060405180910390f35b34801561048257600080fd5b506104a160048036038101908080359060200190929190505050610e3f565b6040518082815260200191505060405180910390f35b3480156104c357600080fd5b506104e260048036038101908080359060200190929190505050610e5f565b604051808273ffffffffffffffffffffffffffffffffffffffff1673ffffffffffffffffffffffffffffffffffffffff16815260200191505060405180910390f35b34801561053057600080fd5b5061054f60048036038101908080359060200190929190505050610e9f565b6040518080602001828103825283818151815260200191508051906020019080838360005b8381101561058f578082015181840152602081019050610574565b50505050905090810190601f1680156105bc5780820380516001836020036101000a031916815260200191505b509250505060405180910390f35b3480156105d657600080fd5b506105df610f57565b604051808273ffffffffffffffffffffffffffffffffffffffff1673ffffffffffffffffffffffffffffffffffffffff16815260200191505060405180910390f35b34801561062d57600080fd5b5061064c60048036038101908080359060200190929190505050610f80565b604051808273ffffffffffffffffffffffffffffffffffffffff1673ffffffffffffffffffffffffffffffffffffffff16815260200191505060405180910390f35b34801561069a57600080fd5b506106b960048036038101908080359060200190929190505050610fbe565b60405180888152602001806020018781526020018681526020018581526020018473ffffffffffffffffffffffffffffffffffffffff1673ffffffffffffffffffffffffffffffffffffffff16815260200183600281111561071757fe5b60ff168152602001828103825288818151815260200191508051906020019080838360005b8381101561075757808201518184015260208101905061073c565b50505050905090810190601f1680156107845780820380516001836020036101000a031916815260200191505b509850505050505050505060405180910390f35b3480156107a457600080fd5b506107c3600480360381019080803590602001909291905050506110c5565b6040518082815260200191505060405180910390f35b3480156107e557600080fd5b50610840600480360381019080803590602001908201803590602001908080601f01602080910402602001604051908101604052809392919081815260200183838082843782019150505050505091929192905050506110e5565b005b34801561084e57600080fd5b5061086d600480360381019080803590602001909291905050506114ed565b6040518082815260200191505060405180910390f35b6060600260008373ffffffffffffffffffffffffffffffffffffffff1673ffffffffffffffffffffffffffffffffffffffff1681526020019081526020016000208054600181600116156101000203166002900480601f0160208091040260200160405190810160405280929190818152602001828054600181600116156101000203166002900480156109585780601f1061092d57610100808354040283529160200191610958565b820191906000526020600020905b81548152906001019060200180831161093b57829003601f168201915b50505050509050919050565b6060600260006006600085815260200190815260200160002060050160009054906101000a900473ffffffffffffffffffffffffffffffffffffffff1673ffffffffffffffffffffffffffffffffffffffff1673ffffffffffffffffffffffffffffffffffffffff1681526020019081526020016000208054600181600116156101000203166002900480601f016020809104026020016040519081016040528092919081815260200182805460018160011615610100020316600290048015610a6f5780601f10610a4457610100808354040283529160200191610a6f565b820191906000526020600020905b815481529060010190602001808311610a5257829003601f168201915b50505050509050919050565b6001809054906101000a900473ffffffffffffffffffffffffffffffffffffffff1673ffffffffffffffffffffffffffffffffffffffff163373ffffffffffffffffffffffffffffffffffffffff16141515610b3f576040517f08c379a00000000000000000000000000000000000000000000000000000000081526004018080602001828103825260208152602001807f4f6e6c79206f776e65722063616e2063616c6c20746869732066756e74696f6e81525060200191505060405180910390fd5b600160009054906101000a900460ff1615600160006101000a81548160ff021916908315150217905550565b606060006060600080600080600660008981526020019081526020016000206001018054600181600116156101000203166002900480601f016020809104026020016040519081016040528092919081815260200182805460018160011615610100020316600290048015610c215780601f10610bf657610100808354040283529160200191610c21565b820191906000526020600020905b815481529060010190602001808311610c0457829003601f168201915b505050505096506006600089815260200190815260200160002060050160009054906101000a900473ffffffffffffffffffffffffffffffffffffffff16955060026000600660008b815260200190815260200160002060050160009054906101000a900473ffffffffffffffffffffffffffffffffffffffff1673ffffffffffffffffffffffffffffffffffffffff1673ffffffffffffffffffffffffffffffffffffffff1681526020019081526020016000208054600181600116156101000203166002900480601f016020809104026020016040519081016040528092919081815260200182805460018160011615610100020316600290048015610d6a5780601f10610d3f57610100808354040283529160200191610d6a565b820191906000526020600020905b815481529060010190602001808311610d4d57829003601f168201915b505050505094506006600089815260200190815260200160002060020154935060066000898152602001908152602001600020600301549250600660008981526020019081526020016000206004015491506006600089815260200190815260200160002060050160149054906101000a900460ff166002811115610deb57fe5b9050868686868686869650965096509650965096509650919395979092949650565b60008080549050905090565b60036020528060005260406000206000915054906101000a900460ff1681565b60055481565b600060066000838152602001908152602001600020600401549050919050565b60006006600083815260200190815260200160002060050160009054906101000a900473ffffffffffffffffffffffffffffffffffffffff169050919050565b6060600660008381526020019081526020016000206001018054600181600116156101000203166002900480601f016020809104026020016040519081016040528092919081815260200182805460018160011615610100020316600290048015610f4b5780601f10610f2057610100808354040283529160200191610f4b565b820191906000526020600020905b815481529060010190602001808311610f2e57829003601f168201915b50505050509050919050565b60006001809054906101000a900473ffffffffffffffffffffffffffffffffffffffff16905090565b600081815481101515610f8f57fe5b906000526020600020016000915054906101000a900473ffffffffffffffffffffffffffffffffffffffff1681565b6006602052806000526040600020600091509050806000015490806001018054600181600116156101000203166002900480601f0160208091040260200160405190810160405280929190818152602001828054600181600116156101000203166002900480156110705780601f1061104557610100808354040283529160200191611070565b820191906000526020600020905b81548152906001019060200180831161105357829003601f168201915b5050505050908060020154908060030154908060040154908060050160009054906101000a900473ffffffffffffffffffffffffffffffffffffffff16908060050160149054906101000a900460ff16905087565b600060066000838152602001908152602001600020600301549050919050565b80600015156004826040518082805190602001908083835b60208310151561112257805182526020820191506020810190506020830392506110fd565b6001836020036101000a038019825116818451168082178552505050505050905001915050908152602001604051809103902060009054906101000a900460ff161515141515611226576040517f08c379a00000000000000000000000000000000000000000000000000000000081526004018080602001828103825260448152602001807f5468697320636c756220616c7265616479206578697374732e2054727920726581526020017f676973746572696e672077697468206120646966666572656e7420636c75622081526020017f6e616d650000000000000000000000000000000000000000000000000000000081525060600191505060405180910390fd5b60001515600160009054906101000a900460ff1615151415156112b1576040517f08c379a000000000000000000000000000000000000000000000000000000000815260040180806020018281038252601f8152602001807f54686520446170702069732070617573656420627920746865206f776e65720081525060200191505060405180910390fd5b60001515600360003373ffffffffffffffffffffffffffffffffffffffff1673ffffffffffffffffffffffffffffffffffffffff16815260200190815260200160002060009054906101000a900460ff16151514151561131057600080fd5b60003390806001815401808255809150509060018203906000526020600020016000909192909190916101000a81548173ffffffffffffffffffffffffffffffffffffffff021916908373ffffffffffffffffffffffffffffffffffffffff160217905550506001600360003373ffffffffffffffffffffffffffffffffffffffff1673ffffffffffffffffffffffffffffffffffffffff16815260200190815260200160002060006101000a81548160ff02191690831515021790555081600260003373ffffffffffffffffffffffffffffffffffffffff1673ffffffffffffffffffffffffffffffffffffffff168152602001908152602001600020908051906020019061142192919061150d565b5060016004836040518082805190602001908083835b60208310151561145c5780518252602082019150602081019050602083039250611437565b6001836020036101000a038019825116818451168082178552505050505050905001915050908152602001604051809103902060006101000a81548160ff0219169083151502179055503373ffffffffffffffffffffffffffffffffffffffff167fcab2a8cf2bfcdcdee4d5f1c64e27d2f26b01d06f3bd1fb0267f8d292946d4faa60405160405180910390a25050565b600060066000838152602001908152602001600020600201549050919050565b828054600181600116156101000203166002900490600052602060002090601f016020900481019282601f1061154e57805160ff191683800117855561157c565b8280016001018555821561157c579182015b8281111561157b578251825591602001919060010190611560565b5b509050611589919061158d565b5090565b6115af91905b808211156115ab576000816000905550600101611593565b5090565b905600a165627a7a72305820099a193f3afe423125fa3e31066ae14b5d1597e0d7f077d45ab68180afcfa8550029",
  "source": "pragma solidity ^0.4.24;\n\nimport 'openzeppelin-solidity/contracts/token/ERC721/ERC721.sol';\nimport './Club.sol';\n\n///@author Sanjay Sanathanan\n///@title Contract that maintains the structure for each Player\ncontract Players is Club{\n    \n    uint public playerID;\n    enum State {TransferListed,TransferAccept, NotListed}\n    \n    struct Player{\n        uint playerID;\n        string name;\n        uint value;\n        uint wage;\n        uint year;\n        address club;\n        State state;\n    }\n\n    mapping(uint => Player) public player;\n\n    event PlayerAdded(uint indexed _pid);\n    \n    ///To get the player name \n    ///@param _id Player id\n    ///@return the name of the player\n    function getPlayerName(uint _id) public view\n     returns(string memory){\n         return player[_id].name;\n     }\n\n    ///To get the player value \n    ///@param _id Player id\n    ///@return the value(cost) of the player \n    function getPlayerValue(uint _id) public view\n     returns (uint){\n         return player[_id].value;\n    }\n     \n    ///To get the player's weekly wage \n    ///@param _id Player id\n    ///@return the wage of the player\n    function getPlayerWeeklyWage(uint _id) public view\n     returns (uint){\n        return player[_id].wage;\n    }\n     \n    ///To get the player's current year left in contract \n    ///@param _id Player id\n    ///@return the current year's left for the player's contract\n    function getPlayerContractYear(uint _id) public view\n    returns (uint){\n        return player[_id].year;\n    }\n    \n    ///To get the player's current club \n    ///@param _id Player id\n    ///@return the current club of the player\n    function getPlayerClub(uint _id) public view\n     returns (string){\n       return clubName[player[_id].club];  \n    }\n    \n    ///To get the player's current club address \n    ///@param _id Player id\n    ///@return the current club address of the player\n    function getPlayerClubaddress(uint _id) public view\n     returns (address){\n       return player[_id].club;  \n    }\n\n    // Used for testing purposes\n    function fetchPlayer(uint _pid) public view returns (string name, address club, string clubname,uint value, uint wage,uint length, uint state) {\n        name = player[_pid].name;\n        club = player[_pid].club;\n        clubname = clubName[player[_pid].club];\n        value = player[_pid].value;\n        wage = player[_pid].wage;\n        length = player[_pid].year;\n        state = uint(player[_pid].state);\n        return (name,club,clubname,value,wage,length,state);\n    }    \n}",
  "sourcePath": "D:\\Dapps\\ConsenSys\\Final Project\\contracts\\Players.sol",
  "compiler": {
    "name": "solc",
    "version": "0.4.24+commit.e67f0147.Emscripten.clang"
  },
  "schemaVersion": "2.0.1",
  "updatedAt": "2019-01-26T14:38:35.521Z"
}