{
  "contractName": "Transfer",
  "abi": [
    {
      "constant": true,
      "inputs": [
        {
          "name": "interfaceId",
          "type": "bytes4"
        }
      ],
      "name": "supportsInterface",
      "outputs": [
        {
          "name": "",
          "type": "bool"
        }
      ],
      "payable": false,
      "stateMutability": "view",
      "type": "function"
    },
    {
      "constant": true,
      "inputs": [
        {
          "name": "_address",
          "type": "address"
        }
      ],
      "name": "getClubName",
      "outputs": [
        {
          "name": "",
          "type": "string"
        }
      ],
      "payable": false,
      "stateMutability": "view",
      "type": "function"
    },
    {
      "constant": true,
      "inputs": [
        {
          "name": "tokenId",
          "type": "uint256"
        }
      ],
      "name": "getApproved",
      "outputs": [
        {
          "name": "",
          "type": "address"
        }
      ],
      "payable": false,
      "stateMutability": "view",
      "type": "function"
    },
    {
      "constant": false,
      "inputs": [
        {
          "name": "to",
          "type": "address"
        },
        {
          "name": "tokenId",
          "type": "uint256"
        }
      ],
      "name": "approve",
      "outputs": [],
      "payable": false,
      "stateMutability": "nonpayable",
      "type": "function"
    },
    {
      "constant": true,
      "inputs": [
        {
          "name": "_id",
          "type": "uint256"
        }
      ],
      "name": "getPlayerClub",
      "outputs": [
        {
          "name": "",
          "type": "string"
        }
      ],
      "payable": false,
      "stateMutability": "view",
      "type": "function"
    },
    {
      "constant": false,
      "inputs": [],
      "name": "toggleContractActive",
      "outputs": [],
      "payable": false,
      "stateMutability": "nonpayable",
      "type": "function"
    },
    {
      "constant": true,
      "inputs": [
        {
          "name": "_pid",
          "type": "uint256"
        }
      ],
      "name": "fetchPlayer",
      "outputs": [
        {
          "name": "name",
          "type": "string"
        },
        {
          "name": "club",
          "type": "address"
        },
        {
          "name": "clubname",
          "type": "string"
        },
        {
          "name": "value",
          "type": "uint256"
        },
        {
          "name": "wage",
          "type": "uint256"
        },
        {
          "name": "length",
          "type": "uint256"
        },
        {
          "name": "state",
          "type": "uint256"
        }
      ],
      "payable": false,
      "stateMutability": "view",
      "type": "function"
    },
    {
      "constant": false,
      "inputs": [
        {
          "name": "from",
          "type": "address"
        },
        {
          "name": "to",
          "type": "address"
        },
        {
          "name": "tokenId",
          "type": "uint256"
        }
      ],
      "name": "transferFrom",
      "outputs": [],
      "payable": false,
      "stateMutability": "nonpayable",
      "type": "function"
    },
    {
      "constant": true,
      "inputs": [
        {
          "name": "",
          "type": "uint256"
        },
        {
          "name": "",
          "type": "uint256"
        }
      ],
      "name": "playerContract",
      "outputs": [
        {
          "name": "contractID",
          "type": "uint256"
        },
        {
          "name": "offerClub",
          "type": "address"
        },
        {
          "name": "offeredValue",
          "type": "uint256"
        },
        {
          "name": "weeklyWage",
          "type": "uint256"
        },
        {
          "name": "contractLength",
          "type": "uint256"
        },
        {
          "name": "cstate",
          "type": "uint8"
        }
      ],
      "payable": false,
      "stateMutability": "view",
      "type": "function"
    },
    {
      "constant": true,
      "inputs": [],
      "name": "clubCount",
      "outputs": [
        {
          "name": "count",
          "type": "uint256"
        }
      ],
      "payable": false,
      "stateMutability": "view",
      "type": "function"
    },
    {
      "constant": true,
      "inputs": [
        {
          "name": "",
          "type": "uint256"
        }
      ],
      "name": "contractNo",
      "outputs": [
        {
          "name": "",
          "type": "uint256"
        }
      ],
      "payable": false,
      "stateMutability": "view",
      "type": "function"
    },
    {
      "constant": true,
      "inputs": [
        {
          "name": "",
          "type": "address"
        }
      ],
      "name": "clubExist",
      "outputs": [
        {
          "name": "",
          "type": "bool"
        }
      ],
      "payable": false,
      "stateMutability": "view",
      "type": "function"
    },
    {
      "constant": true,
      "inputs": [],
      "name": "playerID",
      "outputs": [
        {
          "name": "",
          "type": "uint256"
        }
      ],
      "payable": false,
      "stateMutability": "view",
      "type": "function"
    },
    {
      "constant": false,
      "inputs": [
        {
          "name": "from",
          "type": "address"
        },
        {
          "name": "to",
          "type": "address"
        },
        {
          "name": "tokenId",
          "type": "uint256"
        }
      ],
      "name": "safeTransferFrom",
      "outputs": [],
      "payable": false,
      "stateMutability": "nonpayable",
      "type": "function"
    },
    {
      "constant": true,
      "inputs": [
        {
          "name": "_id",
          "type": "uint256"
        }
      ],
      "name": "getPlayerContractYear",
      "outputs": [
        {
          "name": "",
          "type": "uint256"
        }
      ],
      "payable": false,
      "stateMutability": "view",
      "type": "function"
    },
    {
      "constant": true,
      "inputs": [
        {
          "name": "tokenId",
          "type": "uint256"
        }
      ],
      "name": "ownerOf",
      "outputs": [
        {
          "name": "",
          "type": "address"
        }
      ],
      "payable": false,
      "stateMutability": "view",
      "type": "function"
    },
    {
      "constant": true,
      "inputs": [
        {
          "name": "owner",
          "type": "address"
        }
      ],
      "name": "balanceOf",
      "outputs": [
        {
          "name": "",
          "type": "uint256"
        }
      ],
      "payable": false,
      "stateMutability": "view",
      "type": "function"
    },
    {
      "constant": true,
      "inputs": [
        {
          "name": "_id",
          "type": "uint256"
        }
      ],
      "name": "getPlayerClubaddress",
      "outputs": [
        {
          "name": "",
          "type": "address"
        }
      ],
      "payable": false,
      "stateMutability": "view",
      "type": "function"
    },
    {
      "constant": true,
      "inputs": [
        {
          "name": "_id",
          "type": "uint256"
        }
      ],
      "name": "getPlayerName",
      "outputs": [
        {
          "name": "",
          "type": "string"
        }
      ],
      "payable": false,
      "stateMutability": "view",
      "type": "function"
    },
    {
      "constant": true,
      "inputs": [],
      "name": "getOwner",
      "outputs": [
        {
          "name": "",
          "type": "address"
        }
      ],
      "payable": false,
      "stateMutability": "view",
      "type": "function"
    },
    {
      "constant": true,
      "inputs": [
        {
          "name": "",
          "type": "uint256"
        }
      ],
      "name": "clubs",
      "outputs": [
        {
          "name": "",
          "type": "address"
        }
      ],
      "payable": false,
      "stateMutability": "view",
      "type": "function"
    },
    {
      "constant": true,
      "inputs": [
        {
          "name": "",
          "type": "uint256"
        }
      ],
      "name": "player",
      "outputs": [
        {
          "name": "playerID",
          "type": "uint256"
        },
        {
          "name": "name",
          "type": "string"
        },
        {
          "name": "value",
          "type": "uint256"
        },
        {
          "name": "wage",
          "type": "uint256"
        },
        {
          "name": "year",
          "type": "uint256"
        },
        {
          "name": "club",
          "type": "address"
        },
        {
          "name": "state",
          "type": "uint8"
        }
      ],
      "payable": false,
      "stateMutability": "view",
      "type": "function"
    },
    {
      "constant": false,
      "inputs": [
        {
          "name": "to",
          "type": "address"
        },
        {
          "name": "approved",
          "type": "bool"
        }
      ],
      "name": "setApprovalForAll",
      "outputs": [],
      "payable": false,
      "stateMutability": "nonpayable",
      "type": "function"
    },
    {
      "constant": false,
      "inputs": [
        {
          "name": "from",
          "type": "address"
        },
        {
          "name": "to",
          "type": "address"
        },
        {
          "name": "tokenId",
          "type": "uint256"
        },
        {
          "name": "_data",
          "type": "bytes"
        }
      ],
      "name": "safeTransferFrom",
      "outputs": [],
      "payable": false,
      "stateMutability": "nonpayable",
      "type": "function"
    },
    {
      "constant": true,
      "inputs": [
        {
          "name": "_id",
          "type": "uint256"
        }
      ],
      "name": "getPlayerWeeklyWage",
      "outputs": [
        {
          "name": "",
          "type": "uint256"
        }
      ],
      "payable": false,
      "stateMutability": "view",
      "type": "function"
    },
    {
      "constant": false,
      "inputs": [
        {
          "name": "_name",
          "type": "string"
        }
      ],
      "name": "registerClub",
      "outputs": [],
      "payable": false,
      "stateMutability": "nonpayable",
      "type": "function"
    },
    {
      "constant": true,
      "inputs": [
        {
          "name": "owner",
          "type": "address"
        },
        {
          "name": "operator",
          "type": "address"
        }
      ],
      "name": "isApprovedForAll",
      "outputs": [
        {
          "name": "",
          "type": "bool"
        }
      ],
      "payable": false,
      "stateMutability": "view",
      "type": "function"
    },
    {
      "constant": true,
      "inputs": [
        {
          "name": "_id",
          "type": "uint256"
        }
      ],
      "name": "getPlayerValue",
      "outputs": [
        {
          "name": "",
          "type": "uint256"
        }
      ],
      "payable": false,
      "stateMutability": "view",
      "type": "function"
    },
    {
      "anonymous": false,
      "inputs": [
        {
          "indexed": true,
          "name": "_cid",
          "type": "uint256"
        }
      ],
      "name": "ContractAdded",
      "type": "event"
    },
    {
      "anonymous": false,
      "inputs": [
        {
          "indexed": true,
          "name": "_pid",
          "type": "uint256"
        }
      ],
      "name": "PlayerAdded",
      "type": "event"
    },
    {
      "anonymous": false,
      "inputs": [
        {
          "indexed": true,
          "name": "_club",
          "type": "address"
        }
      ],
      "name": "ClubAdded",
      "type": "event"
    },
    {
      "anonymous": false,
      "inputs": [
        {
          "indexed": true,
          "name": "from",
          "type": "address"
        },
        {
          "indexed": true,
          "name": "to",
          "type": "address"
        },
        {
          "indexed": true,
          "name": "tokenId",
          "type": "uint256"
        }
      ],
      "name": "Transfer",
      "type": "event"
    },
    {
      "anonymous": false,
      "inputs": [
        {
          "indexed": true,
          "name": "owner",
          "type": "address"
        },
        {
          "indexed": true,
          "name": "approved",
          "type": "address"
        },
        {
          "indexed": true,
          "name": "tokenId",
          "type": "uint256"
        }
      ],
      "name": "Approval",
      "type": "event"
    },
    {
      "anonymous": false,
      "inputs": [
        {
          "indexed": true,
          "name": "owner",
          "type": "address"
        },
        {
          "indexed": true,
          "name": "operator",
          "type": "address"
        },
        {
          "indexed": false,
          "name": "approved",
          "type": "bool"
        }
      ],
      "name": "ApprovalForAll",
      "type": "event"
    },
    {
      "constant": false,
      "inputs": [
        {
          "name": "_name",
          "type": "string"
        },
        {
          "name": "_value",
          "type": "uint256"
        },
        {
          "name": "_wage",
          "type": "uint256"
        },
        {
          "name": "_year",
          "type": "uint256"
        }
      ],
      "name": "addPlayer",
      "outputs": [],
      "payable": false,
      "stateMutability": "nonpayable",
      "type": "function"
    },
    {
      "constant": false,
      "inputs": [
        {
          "name": "_id",
          "type": "uint256"
        },
        {
          "name": "_offeredvalue",
          "type": "uint256"
        },
        {
          "name": "_length",
          "type": "uint256"
        }
      ],
      "name": "requestOffer",
      "outputs": [],
      "payable": true,
      "stateMutability": "payable",
      "type": "function"
    },
    {
      "constant": true,
      "inputs": [
        {
          "name": "_id",
          "type": "uint256"
        }
      ],
      "name": "getContractsno",
      "outputs": [
        {
          "name": "",
          "type": "uint256"
        }
      ],
      "payable": false,
      "stateMutability": "view",
      "type": "function"
    },
    {
      "constant": true,
      "inputs": [
        {
          "name": "_id",
          "type": "uint256"
        },
        {
          "name": "_cid",
          "type": "uint256"
        }
      ],
      "name": "getContractValue",
      "outputs": [
        {
          "name": "",
          "type": "uint256"
        }
      ],
      "payable": false,
      "stateMutability": "view",
      "type": "function"
    },
    {
      "constant": true,
      "inputs": [
        {
          "name": "_id",
          "type": "uint256"
        },
        {
          "name": "_cid",
          "type": "uint256"
        }
      ],
      "name": "getContractClub",
      "outputs": [
        {
          "name": "",
          "type": "string"
        }
      ],
      "payable": false,
      "stateMutability": "view",
      "type": "function"
    },
    {
      "constant": true,
      "inputs": [
        {
          "name": "_pid",
          "type": "uint256"
        },
        {
          "name": "_cid",
          "type": "uint256"
        }
      ],
      "name": "fetchContract",
      "outputs": [
        {
          "name": "pid",
          "type": "uint256"
        },
        {
          "name": "cid",
          "type": "uint256"
        },
        {
          "name": "clubname",
          "type": "string"
        },
        {
          "name": "offeredvalue",
          "type": "uint256"
        },
        {
          "name": "wage",
          "type": "uint256"
        },
        {
          "name": "length",
          "type": "uint256"
        }
      ],
      "payable": false,
      "stateMutability": "view",
      "type": "function"
    },
    {
      "constant": false,
      "inputs": [
        {
          "name": "_pid",
          "type": "uint256"
        },
        {
          "name": "_cid",
          "type": "uint256"
        }
      ],
      "name": "acceptOffer",
      "outputs": [],
      "payable": false,
      "stateMutability": "nonpayable",
      "type": "function"
    },
    {
      "constant": false,
      "inputs": [
        {
          "name": "_pid",
          "type": "uint256"
        },
        {
          "name": "_cid",
          "type": "uint256"
        },
        {
          "name": "_wage",
          "type": "uint256"
        }
      ],
      "name": "finaliseDeal",
      "outputs": [
        {
          "name": "",
          "type": "uint256"
        }
      ],
      "payable": true,
      "stateMutability": "payable",
      "type": "function"
    }
  ],
  "bytecode": "0x60806040526000600660006101000a81548160ff0219169083151502179055506200005c6301ffc9a77c010000000000000000000000000000000000000000000000000000000002620000e0640100000000026401000000009004565b620000996380ac58cd7c010000000000000000000000000000000000000000000000000000000002620000e0640100000000026401000000009004565b33600660016101000a81548173ffffffffffffffffffffffffffffffffffffffff021916908373ffffffffffffffffffffffffffffffffffffffff1602179055506200019e565b63ffffffff7c010000000000000000000000000000000000000000000000000000000002817bffffffffffffffffffffffffffffffffffffffffffffffffffffffff1916141515156200013257600080fd5b6001600080837bffffffffffffffffffffffffffffffffffffffffffffffffffffffff19167bffffffffffffffffffffffffffffffffffffffffffffffffffffffff1916815260200190815260200160002060006101000a81548160ff02191690831515021790555050565b613ff480620001ae6000396000f3006080604052600436106101c2576000357c0100000000000000000000000000000000000000000000000000000000900463ffffffff16806301ffc9a7146101c7578063045f616c1461022b578063081812fc146102e7578063095ea7b3146103545780630bad67a9146103a15780631385d24c146104475780631bc629391461045e5780631be4818e1461053157806323b872dd146106925780632d376a7a146106ff57806332f23c93146107a7578063332e4bb2146107d257806334c275dd146108135780633adab4ee1461086e57806342842e0e1461089957806343b9ec391461090657806349c612971461093a5780636352211e1461097b578063657935e2146109e8578063703814bf14610a3357806370a0823114610a745780637c374e9e14610acb5780637fe54e4214610b7b57806381257bd514610be857806382e37b2c14610c1f578063893d20e814610cc55780639cc009c114610d1c5780639e0551c614610d89578063a22cb46514610e93578063a6081b0414610ee2578063b88d4fde14610f2a578063bc3c62eb14610fdd578063cead323d1461101e578063e985e9c514611087578063ea53bc7914611102578063fcbdd51c14611143575b600080fd5b3480156101d357600080fd5b5061021160048036038101908080357bffffffffffffffffffffffffffffffffffffffffffffffffffffffff191690602001909291905050506111ca565b604051808215151515815260200191505060405180910390f35b34801561023757600080fd5b5061026c600480360381019080803573ffffffffffffffffffffffffffffffffffffffff169060200190929190505050611231565b6040518080602001828103825283818151815260200191508051906020019080838360005b838110156102ac578082015181840152602081019050610291565b50505050905090810190601f1680156102d95780820380516001836020036101000a031916815260200191505b509250505060405180910390f35b3480156102f357600080fd5b5061031260048036038101908080359060200190929190505050611312565b604051808273ffffffffffffffffffffffffffffffffffffffff1673ffffffffffffffffffffffffffffffffffffffff16815260200191505060405180910390f35b34801561036057600080fd5b5061039f600480360381019080803573ffffffffffffffffffffffffffffffffffffffff16906020019092919080359060200190929190505050611363565b005b3480156103ad57600080fd5b506103cc600480360381019080803590602001909291905050506114a8565b6040518080602001828103825283818151815260200191508051906020019080838360005b8381101561040c5780820151818401526020810190506103f1565b50505050905090810190601f1680156104395780820380516001836020036101000a031916815260200191505b509250505060405180910390f35b34801561045357600080fd5b5061045c6115bf565b005b34801561046a57600080fd5b5061049360048036038101908080359060200190929190803590602001909291905050506116b0565b6040518087815260200186815260200180602001858152602001848152602001838152602001828103825286818151815260200191508051906020019080838360005b838110156104f15780820151818401526020810190506104d6565b50505050905090810190601f16801561051e5780820380516001836020036101000a031916815260200191505b5097505050505050505060405180910390f35b34801561053d57600080fd5b5061055c6004803603810190808035906020019092919050505061187b565b60405180806020018873ffffffffffffffffffffffffffffffffffffffff1673ffffffffffffffffffffffffffffffffffffffff1681526020018060200187815260200186815260200185815260200184815260200183810383528a818151815260200191508051906020019080838360005b838110156105ea5780820151818401526020810190506105cf565b50505050905090810190601f1680156106175780820380516001836020036101000a031916815260200191505b50838103825288818151815260200191508051906020019080838360005b83811015610650578082015181840152602081019050610635565b50505050905090810190601f16801561067d5780820380516001836020036101000a031916815260200191505b50995050505050505050505060405180910390f35b34801561069e57600080fd5b506106fd600480360381019080803573ffffffffffffffffffffffffffffffffffffffff169060200190929190803573ffffffffffffffffffffffffffffffffffffffff16906020019092919080359060200190929190505050611b1d565b005b34801561070b57600080fd5b506107346004803603810190808035906020019092919080359060200190929190505050611bec565b604051808781526020018673ffffffffffffffffffffffffffffffffffffffff1673ffffffffffffffffffffffffffffffffffffffff16815260200185815260200184815260200183815260200182600281111561078e57fe5b60ff168152602001965050505050505060405180910390f35b3480156107b357600080fd5b506107bc611c62565b6040518082815260200191505060405180910390f35b3480156107de57600080fd5b506107fd60048036038101908080359060200190929190505050611c6f565b6040518082815260200191505060405180910390f35b34801561081f57600080fd5b50610854600480360381019080803573ffffffffffffffffffffffffffffffffffffffff169060200190929190505050611c87565b604051808215151515815260200191505060405180910390f35b34801561087a57600080fd5b50610883611ca7565b6040518082815260200191505060405180910390f35b3480156108a557600080fd5b50610904600480360381019080803573ffffffffffffffffffffffffffffffffffffffff169060200190929190803573ffffffffffffffffffffffffffffffffffffffff16906020019092919080359060200190929190505050611cad565b005b610938600480360381019080803590602001909291908035906020019092919080359060200190929190505050611cce565b005b34801561094657600080fd5b5061096560048036038101908080359060200190929190505050612081565b6040518082815260200191505060405180910390f35b34801561098757600080fd5b506109a6600480360381019080803590602001909291905050506120a1565b604051808273ffffffffffffffffffffffffffffffffffffffff1673ffffffffffffffffffffffffffffffffffffffff16815260200191505060405180910390f35b3480156109f457600080fd5b50610a1d600480360381019080803590602001909291908035906020019092919050505061211f565b6040518082815260200191505060405180910390f35b348015610a3f57600080fd5b50610a5e60048036038101908080359060200190929190505050612151565b6040518082815260200191505060405180910390f35b348015610a8057600080fd5b50610ab5600480360381019080803573ffffffffffffffffffffffffffffffffffffffff16906020019092919050505061216e565b6040518082815260200191505060405180910390f35b348015610ad757600080fd5b50610b0060048036038101908080359060200190929190803590602001909291905050506121f2565b6040518080602001828103825283818151815260200191508051906020019080838360005b83811015610b40578082015181840152602081019050610b25565b50505050905090810190601f168015610b6d5780820380516001836020036101000a031916815260200191505b509250505060405180910390f35b348015610b8757600080fd5b50610ba660048036038101908080359060200190929190505050612326565b604051808273ffffffffffffffffffffffffffffffffffffffff1673ffffffffffffffffffffffffffffffffffffffff16815260200191505060405180910390f35b348015610bf457600080fd5b50610c1d6004803603810190808035906020019092919080359060200190929190505050612366565b005b348015610c2b57600080fd5b50610c4a60048036038101908080359060200190929190505050612730565b6040518080602001828103825283818151815260200191508051906020019080838360005b83811015610c8a578082015181840152602081019050610c6f565b50505050905090810190601f168015610cb75780820380516001836020036101000a031916815260200191505b509250505060405180910390f35b348015610cd157600080fd5b50610cda6127e8565b604051808273ffffffffffffffffffffffffffffffffffffffff1673ffffffffffffffffffffffffffffffffffffffff16815260200191505060405180910390f35b348015610d2857600080fd5b50610d4760048036038101908080359060200190929190505050612812565b604051808273ffffffffffffffffffffffffffffffffffffffff1673ffffffffffffffffffffffffffffffffffffffff16815260200191505060405180910390f35b348015610d9557600080fd5b50610db460048036038101908080359060200190929190505050612850565b60405180888152602001806020018781526020018681526020018581526020018473ffffffffffffffffffffffffffffffffffffffff1673ffffffffffffffffffffffffffffffffffffffff168152602001836002811115610e1257fe5b60ff168152602001828103825288818151815260200191508051906020019080838360005b83811015610e52578082015181840152602081019050610e37565b50505050905090810190601f168015610e7f5780820380516001836020036101000a031916815260200191505b509850505050505050505060405180910390f35b348015610e9f57600080fd5b50610ee0600480360381019080803573ffffffffffffffffffffffffffffffffffffffff169060200190929190803515159060200190929190505050612957565b005b610f14600480360381019080803590602001909291908035906020019092919080359060200190929190505050612a93565b6040518082815260200191505060405180910390f35b348015610f3657600080fd5b50610fdb600480360381019080803573ffffffffffffffffffffffffffffffffffffffff169060200190929190803573ffffffffffffffffffffffffffffffffffffffff16906020019092919080359060200190929190803590602001908201803590602001908080601f0160208091040260200160405190810160405280939291908181526020018383808284378201915050505050509192919290505050612f7a565b005b348015610fe957600080fd5b5061100860048036038101908080359060200190929190505050612fa2565b6040518082815260200191505060405180910390f35b34801561102a57600080fd5b50611085600480360381019080803590602001908201803590602001908080601f0160208091040260200160405190810160405280939291908181526020018383808284378201915050505050509192919290505050612fc2565b005b34801561109357600080fd5b506110e8600480360381019080803573ffffffffffffffffffffffffffffffffffffffff169060200190929190803573ffffffffffffffffffffffffffffffffffffffff1690602001909291905050506133ca565b604051808215151515815260200191505060405180910390f35b34801561110e57600080fd5b5061112d6004803603810190808035906020019092919050505061345e565b6040518082815260200191505060405180910390f35b34801561114f57600080fd5b506111c8600480360381019080803590602001908201803590602001908080601f016020809104026020016040519081016040528093929190818152602001838380828437820191505050505050919291929080359060200190929190803590602001909291908035906020019092919050505061347e565b005b6000806000837bffffffffffffffffffffffffffffffffffffffffffffffffffffffff19167bffffffffffffffffffffffffffffffffffffffffffffffffffffffff1916815260200190815260200160002060009054906101000a900460ff169050919050565b6060600760008373ffffffffffffffffffffffffffffffffffffffff1673ffffffffffffffffffffffffffffffffffffffff1681526020019081526020016000208054600181600116156101000203166002900480601f0160208091040260200160405190810160405280929190818152602001828054600181600116156101000203166002900480156113065780601f106112db57610100808354040283529160200191611306565b820191906000526020600020905b8154815290600101906020018083116112e957829003601f168201915b50505050509050919050565b600061131d826136f3565b151561132857600080fd5b6002600083815260200190815260200160002060009054906101000a900473ffffffffffffffffffffffffffffffffffffffff169050919050565b600061136e826120a1565b90508073ffffffffffffffffffffffffffffffffffffffff168373ffffffffffffffffffffffffffffffffffffffff16141515156113ab57600080fd5b8073ffffffffffffffffffffffffffffffffffffffff163373ffffffffffffffffffffffffffffffffffffffff1614806113eb57506113ea81336133ca565b5b15156113f657600080fd5b826002600084815260200190815260200160002060006101000a81548173ffffffffffffffffffffffffffffffffffffffff021916908373ffffffffffffffffffffffffffffffffffffffff160217905550818373ffffffffffffffffffffffffffffffffffffffff168273ffffffffffffffffffffffffffffffffffffffff167f8c5be1e5ebec7d5bd14f71427d1e84f3dd0314c0f7b2291e5b200ac8c7c3b92560405160405180910390a4505050565b606060076000600b600085815260200190815260200160002060050160009054906101000a900473ffffffffffffffffffffffffffffffffffffffff1673ffffffffffffffffffffffffffffffffffffffff1673ffffffffffffffffffffffffffffffffffffffff1681526020019081526020016000208054600181600116156101000203166002900480601f0160208091040260200160405190810160405280929190818152602001828054600181600116156101000203166002900480156115b35780601f10611588576101008083540402835291602001916115b3565b820191906000526020600020905b81548152906001019060200180831161159657829003601f168201915b50505050509050919050565b600660019054906101000a900473ffffffffffffffffffffffffffffffffffffffff1673ffffffffffffffffffffffffffffffffffffffff163373ffffffffffffffffffffffffffffffffffffffff16141515611684576040517f08c379a00000000000000000000000000000000000000000000000000000000081526004018080602001828103825260208152602001807f4f6e6c79206f776e65722063616e2063616c6c20746869732066756e74696f6e81525060200191505060405180910390fd5b600660009054906101000a900460ff1615600660006101000a81548160ff021916908315150217905550565b6000806060600080600087955086945060076000600d60008b815260200190815260200160002060008a815260200190815260200160002060010160009054906101000a900473ffffffffffffffffffffffffffffffffffffffff1673ffffffffffffffffffffffffffffffffffffffff1673ffffffffffffffffffffffffffffffffffffffff1681526020019081526020016000208054600181600116156101000203166002900480601f0160208091040260200160405190810160405280929190818152602001828054600181600116156101000203166002900480156117da5780601f106117af576101008083540402835291602001916117da565b820191906000526020600020905b8154815290600101906020018083116117bd57829003601f168201915b50505050509350600d60008981526020019081526020016000206000888152602001908152602001600020600201549250600d60008981526020019081526020016000206000888152602001908152602001600020600301549150600d600089815260200190815260200160002060008881526020019081526020016000206004015490508585858585859550955095509550955095509295509295509295565b606060006060600080600080600b60008981526020019081526020016000206001018054600181600116156101000203166002900480601f0160208091040260200160405190810160405280929190818152602001828054600181600116156101000203166002900480156119315780601f1061190657610100808354040283529160200191611931565b820191906000526020600020905b81548152906001019060200180831161191457829003601f168201915b50505050509650600b600089815260200190815260200160002060050160009054906101000a900473ffffffffffffffffffffffffffffffffffffffff16955060076000600b60008b815260200190815260200160002060050160009054906101000a900473ffffffffffffffffffffffffffffffffffffffff1673ffffffffffffffffffffffffffffffffffffffff1673ffffffffffffffffffffffffffffffffffffffff1681526020019081526020016000208054600181600116156101000203166002900480601f016020809104026020016040519081016040528092919081815260200182805460018160011615610100020316600290048015611a7a5780601f10611a4f57610100808354040283529160200191611a7a565b820191906000526020600020905b815481529060010190602001808311611a5d57829003601f168201915b50505050509450600b6000898152602001908152602001600020600201549350600b6000898152602001908152602001600020600301549250600b6000898152602001908152602001600020600401549150600b600089815260200190815260200160002060050160149054906101000a900460ff166002811115611afb57fe5b9050868686868686869650965096509650965096509650919395979092949650565b611b273382613765565b1515611b3257600080fd5b600073ffffffffffffffffffffffffffffffffffffffff168273ffffffffffffffffffffffffffffffffffffffff1614151515611b6e57600080fd5b611b7883826137fa565b611b8283826138fd565b611b8c8282613a2c565b808273ffffffffffffffffffffffffffffffffffffffff168473ffffffffffffffffffffffffffffffffffffffff167fddf252ad1be2c89b69c2b068fc378daa952ba7f163c4a11628f55a4df523b3ef60405160405180910390a4505050565b600d602052816000526040600020602052806000526040600020600091509150508060000154908060010160009054906101000a900473ffffffffffffffffffffffffffffffffffffffff16908060020154908060030154908060040154908060050160009054906101000a900460ff16905086565b6000600580549050905090565b600c6020528060005260406000206000915090505481565b60086020528060005260406000206000915054906101000a900460ff1681565b600a5481565b611cc98383836020604051908101604052806000815250612f7a565b505050565b6000600860003373ffffffffffffffffffffffffffffffffffffffff1673ffffffffffffffffffffffffffffffffffffffff16815260200190815260200160002060009054906101000a900460ff161515611db7576040517f08c379a00000000000000000000000000000000000000000000000000000000081526004018080602001828103825260268152602001807f596f7520617265206e6f74207265676973746572656420617320612076616c6981526020017f6420436c7562000000000000000000000000000000000000000000000000000081525060400191505060405180910390fd5b8360006002811115611dc557fe5b600b600083815260200190815260200160002060050160149054906101000a900460ff166002811115611df457fe5b141515611e0057600080fd5b60001515600660009054906101000a900460ff161515141515611e8b576040517f08c379a000000000000000000000000000000000000000000000000000000000815260040180806020018281038252601f8152602001807f54686520446170702069732070617573656420627920746865206f776e65720081525060200191505060405180910390fd5b3373ffffffffffffffffffffffffffffffffffffffff16611eab86612326565b73ffffffffffffffffffffffffffffffffffffffff1614151515611ece57600080fd5b600c6000868152602001908152602001600020549150600c6000868152602001908152602001600020547fac210b01e42cafdce02d0cd5dc41f3fe6a7245262f52a1cdf2a2eea60dada94060405160405180910390a281600d600087815260200190815260200160002060008481526020019081526020016000206000018190555083600d600087815260200190815260200160002060008481526020019081526020016000206002018190555033600d6000878152602001908152602001600020600084815260200190815260200160002060010160006101000a81548173ffffffffffffffffffffffffffffffffffffffff021916908373ffffffffffffffffffffffffffffffffffffffff16021790555082600d60008781526020019081526020016000206000848152602001908152602001600020600401819055506000600d6000878152602001908152602001600020600084815260200190815260200160002060050160006101000a81548160ff0219169083600281111561205257fe5b0217905550600c6000868152602001908152602001600020600081548092919060010191905055505050505050565b6000600b6000838152602001908152602001600020600401549050919050565b6000806001600084815260200190815260200160002060009054906101000a900473ffffffffffffffffffffffffffffffffffffffff169050600073ffffffffffffffffffffffffffffffffffffffff168173ffffffffffffffffffffffffffffffffffffffff161415151561211657600080fd5b80915050919050565b6000600d6000848152602001908152602001600020600083815260200190815260200160002060020154905092915050565b6000600c6000838152602001908152602001600020549050919050565b60008073ffffffffffffffffffffffffffffffffffffffff168273ffffffffffffffffffffffffffffffffffffffff16141515156121ab57600080fd5b600360008373ffffffffffffffffffffffffffffffffffffffff1673ffffffffffffffffffffffffffffffffffffffff168152602001908152602001600020549050919050565b6060600080600d6000868152602001908152602001600020600085815260200190815260200160002060010160009054906101000a900473ffffffffffffffffffffffffffffffffffffffff169150600760008373ffffffffffffffffffffffffffffffffffffffff1673ffffffffffffffffffffffffffffffffffffffff1681526020019081526020016000209050808054600181600116156101000203166002900480601f0160208091040260200160405190810160405280929190818152602001828054600181600116156101000203166002900480156123175780601f106122ec57610100808354040283529160200191612317565b820191906000526020600020905b8154815290600101906020018083116122fa57829003601f168201915b50505050509250505092915050565b6000600b600083815260200190815260200160002060050160009054906101000a900473ffffffffffffffffffffffffffffffffffffffff169050919050565b600080600860003373ffffffffffffffffffffffffffffffffffffffff1673ffffffffffffffffffffffffffffffffffffffff16815260200190815260200160002060009054906101000a900460ff161515612450576040517f08c379a00000000000000000000000000000000000000000000000000000000081526004018080602001828103825260268152602001807f596f7520617265206e6f74207265676973746572656420617320612076616c6981526020017f6420436c7562000000000000000000000000000000000000000000000000000081525060400191505060405180910390fd5b833373ffffffffffffffffffffffffffffffffffffffff16600b600083815260200190815260200160002060050160009054906101000a900473ffffffffffffffffffffffffffffffffffffffff1673ffffffffffffffffffffffffffffffffffffffff161415156124c157600080fd5b84600060028111156124cf57fe5b600b600083815260200190815260200160002060050160149054906101000a900460ff1660028111156124fe57fe5b14151561250a57600080fd5b60001515600660009054906101000a900460ff161515141515612595576040517f08c379a000000000000000000000000000000000000000000000000000000000815260040180806020018281038252601f8152602001807f54686520446170702069732070617573656420627920746865206f776e65720081525060200191505060405180910390fd5b600d6000878152602001908152602001600020600086815260200190815260200160002060010160009054906101000a900473ffffffffffffffffffffffffffffffffffffffff169350600b600087815260200190815260200160002060050160009054906101000a900473ffffffffffffffffffffffffffffffffffffffff169250600d6000878152602001908152602001600020600086815260200190815260200160002060020154600b600088815260200190815260200160002060020181905550600d6000878152602001908152602001600020600086815260200190815260200160002060040154600b6000888152602001908152602001600020600401819055506001600b600088815260200190815260200160002060050160146101000a81548160ff021916908360028111156126cf57fe5b02179055506001600d6000888152602001908152602001600020600087815260200190815260200160002060050160006101000a81548160ff0219169083600281111561271857fe5b0217905550612728838588611b1d565b505050505050565b6060600b60008381526020019081526020016000206001018054600181600116156101000203166002900480601f0160208091040260200160405190810160405280929190818152602001828054600181600116156101000203166002900480156127dc5780601f106127b1576101008083540402835291602001916127dc565b820191906000526020600020905b8154815290600101906020018083116127bf57829003601f168201915b50505050509050919050565b6000600660019054906101000a900473ffffffffffffffffffffffffffffffffffffffff16905090565b60058181548110151561282157fe5b906000526020600020016000915054906101000a900473ffffffffffffffffffffffffffffffffffffffff1681565b600b602052806000526040600020600091509050806000015490806001018054600181600116156101000203166002900480601f0160208091040260200160405190810160405280929190818152602001828054600181600116156101000203166002900480156129025780601f106128d757610100808354040283529160200191612902565b820191906000526020600020905b8154815290600101906020018083116128e557829003601f168201915b5050505050908060020154908060030154908060040154908060050160009054906101000a900473ffffffffffffffffffffffffffffffffffffffff16908060050160149054906101000a900460ff16905087565b3373ffffffffffffffffffffffffffffffffffffffff168273ffffffffffffffffffffffffffffffffffffffff161415151561299257600080fd5b80600460003373ffffffffffffffffffffffffffffffffffffffff1673ffffffffffffffffffffffffffffffffffffffff16815260200190815260200160002060008473ffffffffffffffffffffffffffffffffffffffff1673ffffffffffffffffffffffffffffffffffffffff16815260200190815260200160002060006101000a81548160ff0219169083151502179055508173ffffffffffffffffffffffffffffffffffffffff163373ffffffffffffffffffffffffffffffffffffffff167f17307eab39ab6107e8899845ad3d59bd9653f200f220920489ca2b5937696c3183604051808215151515815260200191505060405180910390a35050565b600080600085853373ffffffffffffffffffffffffffffffffffffffff16600d6000848152602001908152602001600020600083815260200190815260200160002060010160009054906101000a900473ffffffffffffffffffffffffffffffffffffffff1673ffffffffffffffffffffffffffffffffffffffff16141515612b1b57600080fd5b8760016002811115612b2957fe5b600b600083815260200190815260200160002060050160149054906101000a900460ff166002811115612b5857fe5b141515612b6457600080fd5b888860008060001515600660009054906101000a900460ff161515141515612bf4576040517f08c379a000000000000000000000000000000000000000000000000000000000815260040180806020018281038252601f8152602001807f54686520446170702069732070617573656420627920746865206f776e65720081525060200191505060405180910390fd5b60016002811115612c0157fe5b600d60008f815260200190815260200160002060008e815260200190815260200160002060050160009054906101000a900460ff166002811115612c4157fe5b141515612cdc576040517f08c379a00000000000000000000000000000000000000000000000000000000081526004018080602001828103825260258152602001807f436f6e7472616374206e6f742061636365707465642062792073656c6c696e6781526020017f20636c756200000000000000000000000000000000000000000000000000000081525060400191505060405180910390fd5b600b60008e815260200190815260200160002060050160009054906101000a900473ffffffffffffffffffffffffffffffffffffffff1698508a600b60008f815260200190815260200160002060030181905550600d60008e815260200190815260200160002060008d81526020019081526020016000206002015497508873ffffffffffffffffffffffffffffffffffffffff166108fc899081150290604051600060405180830381858888f19350505050158015612da0573d6000803e3d6000fd5b50600d60008e815260200190815260200160002060008d815260200190815260200160002060010160009054906101000a900473ffffffffffffffffffffffffffffffffffffffff16600b60008f815260200190815260200160002060050160006101000a81548173ffffffffffffffffffffffffffffffffffffffff021916908373ffffffffffffffffffffffffffffffffffffffff1602179055506002600b60008f815260200190815260200160002060050160146101000a81548160ff02191690836002811115612e7057fe5b02179055506002600d60008f815260200190815260200160002060008e815260200190815260200160002060050160006101000a81548160ff02191690836002811115612eb957fe5b0217905550600b60008581526020019081526020016000206002015491508134039050600d6000858152602001908152602001600020600084815260200190815260200160002060010160009054906101000a900473ffffffffffffffffffffffffffffffffffffffff1673ffffffffffffffffffffffffffffffffffffffff166108fc829081150290604051600060405180830381858888f19350505050158015612f69573d6000803e3d6000fd5b505050505050505050509392505050565b612f85848484611b1d565b612f9184848484613b86565b1515612f9c57600080fd5b50505050565b6000600b6000838152602001908152602001600020600301549050919050565b80600015156009826040518082805190602001908083835b602083101515612fff5780518252602082019150602081019050602083039250612fda565b6001836020036101000a038019825116818451168082178552505050505050905001915050908152602001604051809103902060009054906101000a900460ff161515141515613103576040517f08c379a00000000000000000000000000000000000000000000000000000000081526004018080602001828103825260448152602001807f5468697320636c756220616c7265616479206578697374732e2054727920726581526020017f676973746572696e672077697468206120646966666572656e7420636c75622081526020017f6e616d650000000000000000000000000000000000000000000000000000000081525060600191505060405180910390fd5b60001515600660009054906101000a900460ff16151514151561318e576040517f08c379a000000000000000000000000000000000000000000000000000000000815260040180806020018281038252601f8152602001807f54686520446170702069732070617573656420627920746865206f776e65720081525060200191505060405180910390fd5b60001515600860003373ffffffffffffffffffffffffffffffffffffffff1673ffffffffffffffffffffffffffffffffffffffff16815260200190815260200160002060009054906101000a900460ff1615151415156131ed57600080fd5b60053390806001815401808255809150509060018203906000526020600020016000909192909190916101000a81548173ffffffffffffffffffffffffffffffffffffffff021916908373ffffffffffffffffffffffffffffffffffffffff160217905550506001600860003373ffffffffffffffffffffffffffffffffffffffff1673ffffffffffffffffffffffffffffffffffffffff16815260200190815260200160002060006101000a81548160ff02191690831515021790555081600760003373ffffffffffffffffffffffffffffffffffffffff1673ffffffffffffffffffffffffffffffffffffffff16815260200190815260200160002090805190602001906132fe929190613ea3565b5060016009836040518082805190602001908083835b6020831015156133395780518252602082019150602081019050602083039250613314565b6001836020036101000a038019825116818451168082178552505050505050905001915050908152602001604051809103902060006101000a81548160ff0219169083151502179055503373ffffffffffffffffffffffffffffffffffffffff167fcab2a8cf2bfcdcdee4d5f1c64e27d2f26b01d06f3bd1fb0267f8d292946d4faa60405160405180910390a25050565b6000600460008473ffffffffffffffffffffffffffffffffffffffff1673ffffffffffffffffffffffffffffffffffffffff16815260200190815260200160002060008373ffffffffffffffffffffffffffffffffffffffff1673ffffffffffffffffffffffffffffffffffffffff16815260200190815260200160002060009054906101000a900460ff16905092915050565b6000600b6000838152602001908152602001600020600201549050919050565b60001515600660009054906101000a900460ff161515141515613509576040517f08c379a000000000000000000000000000000000000000000000000000000000815260040180806020018281038252601f8152602001807f54686520446170702069732070617573656420627920746865206f776e65720081525060200191505060405180910390fd5b600860003373ffffffffffffffffffffffffffffffffffffffff1673ffffffffffffffffffffffffffffffffffffffff16815260200190815260200160002060009054906101000a900460ff16151561356157600080fd5b600a547f5af403e238a3f8f7d43c05ff2fac53c833e031e8fb8ec011b3c8e073d870ad7b60405160405180910390a260e060405190810160405280600a5481526020018581526020018481526020018381526020018281526020013373ffffffffffffffffffffffffffffffffffffffff168152602001600060028111156135e557fe5b815250600b6000600a548152602001908152602001600020600082015181600001556020820151816001019080519060200190613623929190613f23565b5060408201518160020155606082015181600301556080820151816004015560a08201518160050160006101000a81548173ffffffffffffffffffffffffffffffffffffffff021916908373ffffffffffffffffffffffffffffffffffffffff16021790555060c08201518160050160146101000a81548160ff021916908360028111156136ad57fe5b02179055509050506000600c6000600a548152602001908152602001600020819055506136dc33600a54613da8565b6001600a6000828254019250508190555050505050565b6000806001600084815260200190815260200160002060009054906101000a900473ffffffffffffffffffffffffffffffffffffffff169050600073ffffffffffffffffffffffffffffffffffffffff168173ffffffffffffffffffffffffffffffffffffffff161415915050919050565b600080613771836120a1565b90508073ffffffffffffffffffffffffffffffffffffffff168473ffffffffffffffffffffffffffffffffffffffff1614806137e057508373ffffffffffffffffffffffffffffffffffffffff166137c884611312565b73ffffffffffffffffffffffffffffffffffffffff16145b806137f157506137f081856133ca565b5b91505092915050565b8173ffffffffffffffffffffffffffffffffffffffff1661381a826120a1565b73ffffffffffffffffffffffffffffffffffffffff1614151561383c57600080fd5b600073ffffffffffffffffffffffffffffffffffffffff166002600083815260200190815260200160002060009054906101000a900473ffffffffffffffffffffffffffffffffffffffff1673ffffffffffffffffffffffffffffffffffffffff161415156138f95760006002600083815260200190815260200160002060006101000a81548173ffffffffffffffffffffffffffffffffffffffff021916908373ffffffffffffffffffffffffffffffffffffffff1602179055505b5050565b8173ffffffffffffffffffffffffffffffffffffffff1661391d826120a1565b73ffffffffffffffffffffffffffffffffffffffff1614151561393f57600080fd5b6139926001600360008573ffffffffffffffffffffffffffffffffffffffff1673ffffffffffffffffffffffffffffffffffffffff16815260200190815260200160002054613e4e90919063ffffffff16565b600360008473ffffffffffffffffffffffffffffffffffffffff1673ffffffffffffffffffffffffffffffffffffffff1681526020019081526020016000208190555060006001600083815260200190815260200160002060006101000a81548173ffffffffffffffffffffffffffffffffffffffff021916908373ffffffffffffffffffffffffffffffffffffffff1602179055505050565b600073ffffffffffffffffffffffffffffffffffffffff166001600083815260200190815260200160002060009054906101000a900473ffffffffffffffffffffffffffffffffffffffff1673ffffffffffffffffffffffffffffffffffffffff16141515613a9a57600080fd5b816001600083815260200190815260200160002060006101000a81548173ffffffffffffffffffffffffffffffffffffffff021916908373ffffffffffffffffffffffffffffffffffffffff160217905550613b3f6001600360008573ffffffffffffffffffffffffffffffffffffffff1673ffffffffffffffffffffffffffffffffffffffff16815260200190815260200160002054613e6f90919063ffffffff16565b600360008473ffffffffffffffffffffffffffffffffffffffff1673ffffffffffffffffffffffffffffffffffffffff168152602001908152602001600020819055505050565b600080613ba88573ffffffffffffffffffffffffffffffffffffffff16613e90565b1515613bb75760019150613d9f565b8473ffffffffffffffffffffffffffffffffffffffff1663150b7a02338887876040518563ffffffff167c0100000000000000000000000000000000000000000000000000000000028152600401808573ffffffffffffffffffffffffffffffffffffffff1673ffffffffffffffffffffffffffffffffffffffff1681526020018473ffffffffffffffffffffffffffffffffffffffff1673ffffffffffffffffffffffffffffffffffffffff16815260200183815260200180602001828103825283818151815260200191508051906020019080838360005b83811015613cac578082015181840152602081019050613c91565b50505050905090810190601f168015613cd95780820380516001836020036101000a031916815260200191505b5095505050505050602060405180830381600087803b158015613cfb57600080fd5b505af1158015613d0f573d6000803e3d6000fd5b505050506040513d6020811015613d2557600080fd5b8101908080519060200190929190505050905063150b7a027c0100000000000000000000000000000000000000000000000000000000027bffffffffffffffffffffffffffffffffffffffffffffffffffffffff1916817bffffffffffffffffffffffffffffffffffffffffffffffffffffffff19161491505b50949350505050565b600073ffffffffffffffffffffffffffffffffffffffff168273ffffffffffffffffffffffffffffffffffffffff1614151515613de457600080fd5b613dee8282613a2c565b808273ffffffffffffffffffffffffffffffffffffffff16600073ffffffffffffffffffffffffffffffffffffffff167fddf252ad1be2c89b69c2b068fc378daa952ba7f163c4a11628f55a4df523b3ef60405160405180910390a45050565b600080838311151515613e6057600080fd5b82840390508091505092915050565b6000808284019050838110151515613e8657600080fd5b8091505092915050565b600080823b905060008111915050919050565b828054600181600116156101000203166002900490600052602060002090601f016020900481019282601f10613ee457805160ff1916838001178555613f12565b82800160010185558215613f12579182015b82811115613f11578251825591602001919060010190613ef6565b5b509050613f1f9190613fa3565b5090565b828054600181600116156101000203166002900490600052602060002090601f016020900481019282601f10613f6457805160ff1916838001178555613f92565b82800160010185558215613f92579182015b82811115613f91578251825591602001919060010190613f76565b5b509050613f9f9190613fa3565b5090565b613fc591905b80821115613fc1576000816000905550600101613fa9565b5090565b905600a165627a7a723058205351da7f91d79bde9087f6123e2852c24a9aa4b93cdb7791df5d7dea5f8a47f90029",
  "source": "pragma solidity ^0.4.24;\n//pragma experimental ABIEncoderV2;\n\nimport 'openzeppelin-solidity/contracts/token/ERC721/ERC721.sol';\nimport \"./Club.sol\";\nimport \"./Players.sol\";\n\n///@author Sanjay Sanathanan\n///@author Contract that handles transfer of player from one club to another \ncontract Transfer is ERC721,Club,Players{\n    \n    enum ContractState {notAccept, Accept, Complete}\n    struct Contract{\n        uint contractID;\n        address offerClub;\n        uint256 offeredValue;\n        uint256 weeklyWage;\n        uint256 contractLength;\n        //state of the contract\n        ContractState cstate;\n    }\n\n\n    mapping(uint => uint) public contractNo;\n    mapping(uint => mapping(uint => Contract)) public playerContract;\n\n    event ContractAdded(uint indexed _cid);\n    \n    modifier playerValidClub(uint _pid){\n        require(player[_pid].club == msg.sender);\n        _;\n    }\n    \n    modifier contractValidClub(uint _pid,uint _cid){\n        require(playerContract[_pid][_cid].offerClub == msg.sender);\n        _;\n    }\n    \n    modifier playerinTransferList(uint _pid){\n        require(player[_pid].state == State.TransferListed);\n        _;\n    }\n\n    modifier playerAccepted(uint _pid){\n        require(player[_pid].state == State.TransferAccept);\n        _;\n    }\n\n    modifier contractAccepted(uint _pid,uint _cid){\n        require(playerContract[_pid][_cid].cstate == ContractState.Accept);\n        _;\n    }\n\n    modifier paidEnough(uint _pid){\n        require (msg.value >= player[_pid].value);\n        _;\n    }\n    modifier checkValue(uint _pid,uint _cid) {\n        //refund them after pay for item (why it is before, _ checks for logic before func)\n        _;\n        uint _price = player[_pid].value;\n        uint amountToRefund = msg.value - _price;\n        playerContract[_pid][_cid].offerClub.transfer(amountToRefund);\n    }\n\n    ///Adds a player to the Transfer List\n    ///@param _name Name of the player to be added\n    ///@param _value Value/Cost of the player \n    ///@param _wage weekly wage of the player\n    ///@param _year year left in the players current contract\n    ///@dev called from registered club address. creates a new player id & ERC721 token on invocation\n    function addPlayer(string _name, uint _value,uint _wage, uint _year) public checkIfPaused {\n        require(clubExist[msg.sender]);\n        emit PlayerAdded(playerID);\n        player[playerID] = Player({playerID : playerID, name : _name, value : _value, wage : _wage, year : _year, club : msg.sender, state : State.TransferListed});\n        \n        contractNo[playerID] = 0;\n       \n        _mint(msg.sender,playerID);\n        playerID += 1;   \n    }\n    \n    ///Request a contract for a particular player in transfer list\n    ///@param _id ID of the player\n    ///@param _offeredvalue Value/cost buying club willing to offer for the player \n    ///@param _length number of years in the contract offer\n    ///@dev Each player can have multiple offers of contract\n    function requestOffer(uint _id,uint _offeredvalue, uint _length) public payable validClub playerinTransferList(_id) checkIfPaused{\n        require(getPlayerClubaddress(_id) != msg.sender);\n        \n        uint contractID = contractNo[_id];\n        emit ContractAdded(contractNo[_id]);\n        playerContract[_id][contractID].contractID = contractID;\n        playerContract[_id][contractID].offeredValue = _offeredvalue;\n        playerContract[_id][contractID].offerClub = msg.sender;\n        playerContract[_id][contractID].contractLength = _length;\n        playerContract[_id][contractID].cstate = ContractState.notAccept;\n    \n        contractNo[_id]++;     \n    }\n\n    ///Get number of contracts for each player\n    ///@param _id ID of the player\n    ///@return total number of contracts the player has received \n    function getContractsno(uint _id) public view\n    returns (uint){\n        return contractNo[_id];\n    }\n    \n    ///Get the contract value offered for a certain player\n    ///@param _id ID of the player\n    ///@param _cid ID of the contract\n    ///@return the offered value of the particular contract\n    function getContractValue(uint _id,uint _cid) public view \n    returns (uint){\n      return playerContract[_id][_cid].offeredValue;\n    }\n    \n    ///Get the buying club offered for a certain contract\n    ///@param _id ID of the player\n    ///@param _cid ID of the contract\n    ///@return the buying club of the contract\n    function getContractClub(uint _id, uint _cid) public view\n    returns (string){\n        address _club = playerContract[_id][_cid].offerClub;\n        string storage _cname = clubName[_club];\n        \n        return _cname;\n    }\n\n    //Used for testing purposes\n    function fetchContract(uint _pid, uint _cid) public view returns (uint pid,uint cid,string clubname,uint offeredvalue,uint wage,uint length) {\n        pid = _pid;\n        cid = _cid;\n        clubname = clubName[playerContract[_pid][_cid].offerClub];\n        offeredvalue = playerContract[_pid][_cid].offeredValue;\n        wage = playerContract[_pid][_cid].weeklyWage;\n        length = playerContract[_pid][_cid].contractLength;\n        return (pid,cid,clubname,offeredvalue,wage,length);\n    }\n    \n    ///Accept a contract by the player's current club\n    ///@param _pid ID of the player\n    ///@param _cid ID of the contract\n    ///@notice changes player'currecnt value,year as per the accepted contract, called by the player's current club\n    ///@dev Transfer the ERC 721 token on invocation\n    function acceptOffer(uint _pid, uint _cid) \n    validClub playerValidClub(_pid) playerinTransferList(_pid) checkIfPaused\n    public {\n        \n        address _caddress = playerContract[_pid][_cid].offerClub;\n        address _paddress = player[_pid].club;\n        \n        player[_pid].value = playerContract[_pid][_cid].offeredValue;\n        player[_pid].year  = playerContract[_pid][_cid].contractLength;\n        player[_pid].state = State.TransferAccept;\n        //contract accepted, change the state\n        playerContract[_pid][_cid].cstate = ContractState.Accept;\n\n        transferFrom(_paddress, _caddress, _pid);\n    }\n    \n    ///Finalise deal, that allows the transfer of funds and token\n    ///@param _pid ID of the player\n    ///@param _cid ID of the contract\n    ///@param _wage weekly wage offered by the buying club\n    function finaliseDeal(uint _pid, uint _cid, uint _wage) \n    contractValidClub(_pid,_cid) playerAccepted(_pid) checkValue(_pid,_cid) checkIfPaused\n    public payable\n    returns (uint){\n        require(playerContract[_pid][_cid].cstate == ContractState.Accept, \"Contract not accepted by selling club\");\n        address _paddress = player[_pid].club;\n        player[_pid].wage = _wage;\n        uint _value = playerContract[_pid][_cid].offeredValue;\n        _paddress.transfer(_value);\n        \n        \n        player[_pid].club =  playerContract[_pid][_cid].offerClub;\n        player[_pid].state = State.NotListed;\n        playerContract[_pid][_cid].cstate = ContractState.Complete;\n    }  \n}\n\n",
  "sourcePath": "D:\\Dapps\\ConsenSys\\Final Project\\contracts\\Transfer.sol",
  "compiler": {
    "name": "solc",
    "version": "0.4.24+commit.e67f0147.Emscripten.clang"
  },
  "schemaVersion": "2.0.1",
  "updatedAt": "2019-01-26T14:46:26.401Z"
}